{
  "contractName": "TrustedNewsPlatform",
  "abi": [
    {
      "anonymous": false,
      "inputs": [
        {
          "indexed": true,
          "name": "publisher",
          "type": "address"
        },
        {
          "indexed": true,
          "name": "concerns",
          "type": "address[]"
        },
        {
          "indexed": false,
          "name": "newsIpfsHash",
          "type": "bytes32"
        }
      ],
      "name": "NewsPublished",
      "type": "event"
    },
    {
      "anonymous": false,
      "inputs": [
        {
          "indexed": true,
          "name": "newsIpfsHash",
          "type": "bytes32"
        },
        {
          "indexed": false,
          "name": "approver",
          "type": "address"
        }
      ],
      "name": "NewsApproved",
      "type": "event"
    },
    {
      "anonymous": false,
      "inputs": [
        {
          "indexed": true,
          "name": "newsIpfsHash",
          "type": "bytes32"
        },
        {
          "indexed": false,
          "name": "disapprover",
          "type": "address"
        },
        {
          "indexed": false,
          "name": "explanationIpfsHash",
          "type": "bytes32"
        }
      ],
      "name": "NewsDisapproved",
      "type": "event"
    },
    {
      "anonymous": false,
      "inputs": [
        {
          "indexed": true,
          "name": "newsIpfsHash",
          "type": "bytes32"
        }
      ],
      "name": "NewsMarkedAsNotFake",
      "type": "event"
    },
    {
      "constant": false,
      "inputs": [
        {
          "name": "_newsIpfsHash",
          "type": "bytes32"
        },
        {
          "name": "_requiredApprovals",
          "type": "address[]"
        }
      ],
      "name": "publishNews",
      "outputs": [],
      "payable": false,
      "stateMutability": "nonpayable",
      "type": "function"
    },
    {
      "constant": false,
      "inputs": [
        {
          "name": "_newsIpfsHash",
          "type": "bytes32"
        }
      ],
      "name": "approveNews",
      "outputs": [],
      "payable": false,
      "stateMutability": "nonpayable",
      "type": "function"
    },
    {
      "constant": false,
      "inputs": [
        {
          "name": "_newsIpfsHash",
          "type": "bytes32"
        },
        {
          "name": "_explanationIpfsHash",
          "type": "bytes32"
        }
      ],
      "name": "disapproveNews",
      "outputs": [],
      "payable": false,
      "stateMutability": "nonpayable",
      "type": "function"
    }
  ],
  "bytecode": "0x608060405234801561001057600080fd5b50610c48806100206000396000f3fe608060405234801561001057600080fd5b506004361061005e576000357c0100000000000000000000000000000000000000000000000000000000900480635d135f2214610063578063987287ea1461009b578063dc28191e1461015d575b600080fd5b6100996004803603604081101561007957600080fd5b81019080803590602001909291908035906020019092919050505061018b565b005b61015b600480360360408110156100b157600080fd5b8101908080359060200190929190803590602001906401000000008111156100d857600080fd5b8201836020820111156100ea57600080fd5b8035906020019184602083028401116401000000008311171561010c57600080fd5b919080806020026020016040519081016040528093929190818152602001838360200280828437600081840152601f19601f820116905080830192505050505050509192919290505050610459565b005b6101896004803603602081101561017357600080fd5b8101908080359060200190929190505050610715565b005b81600073ffffffffffffffffffffffffffffffffffffffff1660008083815260200190815260200160002060000160009054906101000a900473ffffffffffffffffffffffffffffffffffffffff1673ffffffffffffffffffffffffffffffffffffffff161415610247576040517f08c379a0000000000000000000000000000000000000000000000000000000008152600401808060200182810382526027815260200180610bed6027913960400191505060405180910390fd5b82600080905060008090505b6000808481526020019081526020016000206001018054905081101561030757600080848152602001908152602001600020600101818154811061029357fe5b9060005260206000200160009054906101000a900473ffffffffffffffffffffffffffffffffffffffff1673ffffffffffffffffffffffffffffffffffffffff163373ffffffffffffffffffffffffffffffffffffffff1614156102fa5760019150610307565b8080600101915050610253565b508061037b576040517f08c379a00000000000000000000000000000000000000000000000000000000081526004018080602001828103825260108152602001807f496e76616c696420617070726f7665720000000000000000000000000000000081525060200191505060405180910390fd5b600080600087815260200190815260200160002060020160003373ffffffffffffffffffffffffffffffffffffffff1673ffffffffffffffffffffffffffffffffffffffff16815260200190815260200160002060006101000a81548160ff021916908315150217905550847fcf59f9d8d074a0cea57ef5c3f5d5e88b9c4642f99e622ff90f9edd8c3aa758bb3386604051808373ffffffffffffffffffffffffffffffffffffffff1673ffffffffffffffffffffffffffffffffffffffff1681526020018281526020019250505060405180910390a25050505050565b81600073ffffffffffffffffffffffffffffffffffffffff1660008083815260200190815260200160002060000160009054906101000a900473ffffffffffffffffffffffffffffffffffffffff1673ffffffffffffffffffffffffffffffffffffffff1614610531576040517f08c379a00000000000000000000000000000000000000000000000000000000081526004018080602001828103825260208152602001807f54686973206e6577732068617320616c7265616479206265656e2074616b656e81525060200191505060405180910390fd5b60405180606001604052803373ffffffffffffffffffffffffffffffffffffffff168152602001838152602001835181525060008085815260200190815260200160002060008201518160000160006101000a81548173ffffffffffffffffffffffffffffffffffffffff021916908373ffffffffffffffffffffffffffffffffffffffff16021790555060208201518160010190805190602001906105d8929190610b1f565b506040820151816003015590505060008090505b825181101561067e576001600084838151811061060557fe5b602002602001015173ffffffffffffffffffffffffffffffffffffffff1673ffffffffffffffffffffffffffffffffffffffff16815260200190815260200160002084908060018154018082558091505090600182039060005260206000200160009091929091909150555080806001019150506105ec565b508160405180828051906020019060200280838360005b838110156106b0578082015181840152602081019050610695565b5050505090500191505060405180910390203373ffffffffffffffffffffffffffffffffffffffff167fcf2a617fb980e330db4e9d140bec6d45018d5249b0672be54fd1f03df017a408856040518082815260200191505060405180910390a3505050565b80600073ffffffffffffffffffffffffffffffffffffffff1660008083815260200190815260200160002060000160009054906101000a900473ffffffffffffffffffffffffffffffffffffffff1673ffffffffffffffffffffffffffffffffffffffff1614156107d1576040517f08c379a0000000000000000000000000000000000000000000000000000000008152600401808060200182810382526027815260200180610bed6027913960400191505060405180910390fd5b81600080905060008090505b6000808481526020019081526020016000206001018054905081101561089157600080848152602001908152602001600020600101818154811061081d57fe5b9060005260206000200160009054906101000a900473ffffffffffffffffffffffffffffffffffffffff1673ffffffffffffffffffffffffffffffffffffffff163373ffffffffffffffffffffffffffffffffffffffff1614156108845760019150610891565b80806001019150506107dd565b5080610905576040517f08c379a00000000000000000000000000000000000000000000000000000000081526004018080602001828103825260108152602001807f496e76616c696420617070726f7665720000000000000000000000000000000081525060200191505060405180910390fd5b60008085815260200190815260200160002060020160003373ffffffffffffffffffffffffffffffffffffffff1673ffffffffffffffffffffffffffffffffffffffff16815260200190815260200160002060009054906101000a900460ff16156109d8576040517f08c379a000000000000000000000000000000000000000000000000000000000815260040180806020018281038252601e8152602001807f596f7520616c726561647920617070726f7665642074686973206e657773000081525060200191505060405180910390fd5b600160008086815260200190815260200160002060020160003373ffffffffffffffffffffffffffffffffffffffff1673ffffffffffffffffffffffffffffffffffffffff16815260200190815260200160002060006101000a81548160ff02191690831515021790555060008085815260200190815260200160002060030160008154809291906001900391905055506000806000868152602001908152602001600020600301541415610ab557837f6cf336e8ab072b6da9053cff3e43e0f4ee4ab96618f2e9117124acb1ef6e8eda60405160405180910390a25b837f96a2768c0b8c25ecfcb84d1df071dbfc32ff45efc12f634c7942f447ebf541d133604051808273ffffffffffffffffffffffffffffffffffffffff1673ffffffffffffffffffffffffffffffffffffffff16815260200191505060405180910390a250505050565b828054828255906000526020600020908101928215610b98579160200282015b82811115610b975782518260006101000a81548173ffffffffffffffffffffffffffffffffffffffff021916908373ffffffffffffffffffffffffffffffffffffffff16021790555091602001919060010190610b3f565b5b509050610ba59190610ba9565b5090565b610be991905b80821115610be557600081816101000a81549073ffffffffffffffffffffffffffffffffffffffff021916905550600101610baf565b5090565b9056fe4e65777320776974682074686520676976656e206861736820646f6573206e6f74206578697374a265627a7a723058203ae668e785f051a5b815c58a20ebdb1b576bb80ee2b8bdb56f6816d58ecda61b64736f6c634300050a0032",
  "source": "pragma solidity 0.5.10;\n\n\ncontract TrustedNewsPlatform {\n\n    // Structs\n\n    struct News {\n        address publisher;\n        address[] concerns;\n        mapping(address => bool) approvals;\n        uint remainingApprovals;\n    }\n\n    // Events\n\n    event NewsPublished(\n        address indexed publisher,\n        address[] indexed concerns,\n        bytes32 newsIpfsHash\n    );\n    event NewsApproved(\n        bytes32 indexed newsIpfsHash,\n        address approver\n    );\n    event NewsDisapproved(\n        bytes32 indexed newsIpfsHash,\n        address disapprover,\n        bytes32 explanationIpfsHash\n    );\n\n    event NewsMarkedAsNotFake(\n        bytes32 indexed newsIpfsHash\n    );\n\n    // Properties\n\n    mapping(bytes32 => News) news;\n    mapping(address => bytes32[]) newsConcerning;\n\n    // Modifiers\n\n    modifier hashIsNotTaken(bytes32 _newsIpfsHash) {\n        require(news[_newsIpfsHash].publisher == address(0), \"This news has already been taken\");\n        _;\n    }\n\n    modifier doesNewsExist(bytes32 _ipfsHash) {\n        require(news[_ipfsHash].publisher != address(0), \"News with the given hash does not exist\");\n        _;\n    }\n\n    modifier isApproverValid(bytes32 _newsIpfsHash) {\n        bool isValid = false;\n\n        for(uint i = 0; i < news[_newsIpfsHash].concerns.length; i++) {\n            if(msg.sender == news[_newsIpfsHash].concerns[i]) {\n                isValid = true;\n                break;\n            }\n        }\n        require(isValid, \"Invalid approver\");\n        _;\n    }\n\n    function publishNews(bytes32 _newsIpfsHash, address[] memory _requiredApprovals) public\n    hashIsNotTaken(_newsIpfsHash)\n    {\n        news[_newsIpfsHash] = News({\n            publisher: msg.sender,\n            concerns: _requiredApprovals,\n            remainingApprovals: _requiredApprovals.length\n        });\n        for(uint i = 0; i < _requiredApprovals.length; i++) {\n            newsConcerning[_requiredApprovals[i]].push(_newsIpfsHash);\n        }\n        emit NewsPublished(msg.sender, _requiredApprovals, _newsIpfsHash);\n    }\n\n    function approveNews(bytes32 _newsIpfsHash) public\n    doesNewsExist(_newsIpfsHash)\n    isApproverValid(_newsIpfsHash)\n    {\n        require(!news[_newsIpfsHash].approvals[msg.sender], \"You already approved this news\");\n\n        news[_newsIpfsHash].approvals[msg.sender] = true;\n        news[_newsIpfsHash].remainingApprovals--;\n\n        if(news[_newsIpfsHash].remainingApprovals == 0)\n        {\n            emit NewsMarkedAsNotFake(_newsIpfsHash);\n        }\n\n        emit NewsApproved(_newsIpfsHash, msg.sender);\n    }\n\n    function disapproveNews(bytes32 _newsIpfsHash, bytes32 _explanationIpfsHash) public\n    doesNewsExist(_newsIpfsHash)\n    isApproverValid(_newsIpfsHash)\n    {\n        news[_newsIpfsHash].approvals[msg.sender] = false;\n        emit NewsDisapproved(_newsIpfsHash, msg.sender, _explanationIpfsHash);\n    }\n}",
  "sourcePath": "/Users/marcellobardus/Projects/Hackathons/HackYeah2019/contracts/TrustedNewsPlatform.sol",
  "compiler": {
    "name": "solc",
    "version": "0.5.10+commit.5a6ea5b1.Linux.g++"
  },
  "schemaVersion": "3.0.10",
  "updatedAt": "2019-09-14T15:20:14.166Z",
  "devdoc": {
    "methods": {}
  },
  "userdoc": {
    "methods": {}
  }
}