{
  "contractName": "TrustedNewsPlatform",
  "abi": [
    {
      "anonymous": false,
      "inputs": [
        {
          "indexed": true,
          "name": "publisher",
          "type": "address"
        },
        {
          "indexed": true,
          "name": "concerns",
          "type": "address[]"
        },
        {
          "indexed": false,
          "name": "newsIpfsHash",
          "type": "bytes32"
        }
      ],
      "name": "NewsPublished",
      "type": "event"
    },
    {
      "anonymous": false,
      "inputs": [
        {
          "indexed": true,
          "name": "newsIpfsHash",
          "type": "bytes32"
        },
        {
          "indexed": false,
          "name": "approver",
          "type": "address"
        }
      ],
      "name": "NewsApproved",
      "type": "event"
    },
    {
      "anonymous": false,
      "inputs": [
        {
          "indexed": true,
          "name": "newsIpfsHash",
          "type": "bytes32"
        },
        {
          "indexed": false,
          "name": "disapprover",
          "type": "address"
        },
        {
          "indexed": false,
          "name": "explanationIpfsHash",
          "type": "bytes32"
        }
      ],
      "name": "NewsDisapproved",
      "type": "event"
    },
    {
      "anonymous": false,
      "inputs": [
        {
          "indexed": true,
          "name": "newsIpfsHash",
          "type": "bytes32"
        }
      ],
      "name": "NewsMarkedAsNotFake",
      "type": "event"
    },
    {
      "constant": false,
      "inputs": [
        {
          "name": "_newsIpfsHash",
          "type": "bytes32"
        },
        {
          "name": "_requiredApprovals",
          "type": "address[]"
        }
      ],
      "name": "publishNews",
      "outputs": [],
      "payable": false,
      "stateMutability": "nonpayable",
      "type": "function"
    },
    {
      "constant": false,
      "inputs": [
        {
          "name": "_newsIpfsHash",
          "type": "bytes32"
        }
      ],
      "name": "approveNews",
      "outputs": [],
      "payable": false,
      "stateMutability": "nonpayable",
      "type": "function"
    },
    {
      "constant": false,
      "inputs": [
        {
          "name": "_newsIpfsHash",
          "type": "bytes32"
        },
        {
          "name": "_explanationIpfsHash",
          "type": "bytes32"
        }
      ],
      "name": "disapproveNews",
      "outputs": [],
      "payable": false,
      "stateMutability": "nonpayable",
      "type": "function"
    },
    {
      "constant": true,
      "inputs": [
        {
          "name": "_newsIpfsHash",
          "type": "bytes32"
        }
      ],
      "name": "getNewsPublisher",
      "outputs": [
        {
          "name": "",
          "type": "address"
        }
      ],
      "payable": false,
      "stateMutability": "view",
      "type": "function"
    },
    {
      "constant": true,
      "inputs": [
        {
          "name": "_newsIpfsHash",
          "type": "bytes32"
        }
      ],
      "name": "getNewsConcerns",
      "outputs": [
        {
          "name": "",
          "type": "address[]"
        }
      ],
      "payable": false,
      "stateMutability": "view",
      "type": "function"
    },
    {
      "constant": true,
      "inputs": [
        {
          "name": "_newsIpfsHash",
          "type": "bytes32"
        },
        {
          "name": "_approver",
          "type": "address"
        }
      ],
      "name": "isNewsApprovedBy",
      "outputs": [
        {
          "name": "",
          "type": "bool"
        }
      ],
      "payable": false,
      "stateMutability": "view",
      "type": "function"
    },
    {
      "constant": true,
      "inputs": [
        {
          "name": "_newsIpfsHash",
          "type": "bytes32"
        }
      ],
      "name": "getNewsRemainingApprovals",
      "outputs": [
        {
          "name": "",
          "type": "uint256"
        }
      ],
      "payable": false,
      "stateMutability": "view",
      "type": "function"
    },
    {
      "constant": true,
      "inputs": [
        {
          "name": "entity",
          "type": "address"
        }
      ],
      "name": "GetNewsConcerning",
      "outputs": [
        {
          "name": "",
          "type": "bytes32[]"
        }
      ],
      "payable": false,
      "stateMutability": "view",
      "type": "function"
    }
  ],
  "bytecode": "0x608060405234801561001057600080fd5b506110c3806100206000396000f3fe608060405234801561001057600080fd5b50600436106100a5576000357c0100000000000000000000000000000000000000000000000000000000900480635d135f22116100785780635d135f2214610243578063987287ea1461027b578063c79a53811461033d578063dc28191e146103d6576100a5565b8063133992c6146100aa578063326495f1146100ec5780634fc8d5201461016f5780635b19027f146101dd575b600080fd5b6100d6600480360360208110156100c057600080fd5b8101908080359060200190929190505050610404565b6040518082815260200191505060405180910390f35b6101186004803603602081101561010257600080fd5b8101908080359060200190929190505050610423565b6040518080602001828103825283818151815260200191508051906020019060200280838360005b8381101561015b578082015181840152602081019050610140565b505050509050019250505060405180910390f35b61019b6004803603602081101561018557600080fd5b81019080803590602001909291905050506104c6565b604051808273ffffffffffffffffffffffffffffffffffffffff1673ffffffffffffffffffffffffffffffffffffffff16815260200191505060405180910390f35b610229600480360360408110156101f357600080fd5b8101908080359060200190929190803573ffffffffffffffffffffffffffffffffffffffff169060200190929190505050610505565b604051808215151515815260200191505060405180910390f35b6102796004803603604081101561025957600080fd5b81019080803590602001909291908035906020019092919050505061056f565b005b61033b6004803603604081101561029157600080fd5b8101908080359060200190929190803590602001906401000000008111156102b857600080fd5b8201836020820111156102ca57600080fd5b803590602001918460208302840111640100000000831117156102ec57600080fd5b919080806020026020016040519081016040528093929190818152602001838360200280828437600081840152601f19601f82011690508083019250505050505050919291929050505061083d565b005b61037f6004803603602081101561035357600080fd5b81019080803573ffffffffffffffffffffffffffffffffffffffff169060200190929190505050610af9565b6040518080602001828103825283818151815260200191508051906020019060200280838360005b838110156103c25780820151818401526020810190506103a7565b505050509050019250505060405180910390f35b610402600480360360208110156103ec57600080fd5b8101908080359060200190929190505050610b90565b005b6000806000838152602001908152602001600020600301549050919050565b60606000808381526020019081526020016000206001018054806020026020016040519081016040528092919081815260200182805480156104ba57602002820191906000526020600020905b8160009054906101000a900473ffffffffffffffffffffffffffffffffffffffff1673ffffffffffffffffffffffffffffffffffffffff1681526020019060010190808311610470575b50505050509050919050565b600080600083815260200190815260200160002060000160009054906101000a900473ffffffffffffffffffffffffffffffffffffffff169050919050565b600080600084815260200190815260200160002060020160008373ffffffffffffffffffffffffffffffffffffffff1673ffffffffffffffffffffffffffffffffffffffff16815260200190815260200160002060009054906101000a900460ff16905092915050565b81600073ffffffffffffffffffffffffffffffffffffffff1660008083815260200190815260200160002060000160009054906101000a900473ffffffffffffffffffffffffffffffffffffffff1673ffffffffffffffffffffffffffffffffffffffff16141561062b576040517f08c379a00000000000000000000000000000000000000000000000000000000081526004018080602001828103825260278152602001806110686027913960400191505060405180910390fd5b82600080905060008090505b600080848152602001908152602001600020600101805490508110156106eb57600080848152602001908152602001600020600101818154811061067757fe5b9060005260206000200160009054906101000a900473ffffffffffffffffffffffffffffffffffffffff1673ffffffffffffffffffffffffffffffffffffffff163373ffffffffffffffffffffffffffffffffffffffff1614156106de57600191506106eb565b8080600101915050610637565b508061075f576040517f08c379a00000000000000000000000000000000000000000000000000000000081526004018080602001828103825260108152602001807f496e76616c696420617070726f7665720000000000000000000000000000000081525060200191505060405180910390fd5b600080600087815260200190815260200160002060020160003373ffffffffffffffffffffffffffffffffffffffff1673ffffffffffffffffffffffffffffffffffffffff16815260200190815260200160002060006101000a81548160ff021916908315150217905550847fcf59f9d8d074a0cea57ef5c3f5d5e88b9c4642f99e622ff90f9edd8c3aa758bb3386604051808373ffffffffffffffffffffffffffffffffffffffff1673ffffffffffffffffffffffffffffffffffffffff1681526020018281526020019250505060405180910390a25050505050565b81600073ffffffffffffffffffffffffffffffffffffffff1660008083815260200190815260200160002060000160009054906101000a900473ffffffffffffffffffffffffffffffffffffffff1673ffffffffffffffffffffffffffffffffffffffff1614610915576040517f08c379a00000000000000000000000000000000000000000000000000000000081526004018080602001828103825260208152602001807f54686973206e6577732068617320616c7265616479206265656e2074616b656e81525060200191505060405180910390fd5b60405180606001604052803373ffffffffffffffffffffffffffffffffffffffff168152602001838152602001835181525060008085815260200190815260200160002060008201518160000160006101000a81548173ffffffffffffffffffffffffffffffffffffffff021916908373ffffffffffffffffffffffffffffffffffffffff16021790555060208201518160010190805190602001906109bc929190610f9a565b506040820151816003015590505060008090505b8251811015610a6257600160008483815181106109e957fe5b602002602001015173ffffffffffffffffffffffffffffffffffffffff1673ffffffffffffffffffffffffffffffffffffffff16815260200190815260200160002084908060018154018082558091505090600182039060005260206000200160009091929091909150555080806001019150506109d0565b508160405180828051906020019060200280838360005b83811015610a94578082015181840152602081019050610a79565b5050505090500191505060405180910390203373ffffffffffffffffffffffffffffffffffffffff167fcf2a617fb980e330db4e9d140bec6d45018d5249b0672be54fd1f03df017a408856040518082815260200191505060405180910390a3505050565b6060600160008373ffffffffffffffffffffffffffffffffffffffff1673ffffffffffffffffffffffffffffffffffffffff168152602001908152602001600020805480602002602001604051908101604052809291908181526020018280548015610b8457602002820191906000526020600020905b815481526020019060010190808311610b70575b50505050509050919050565b80600073ffffffffffffffffffffffffffffffffffffffff1660008083815260200190815260200160002060000160009054906101000a900473ffffffffffffffffffffffffffffffffffffffff1673ffffffffffffffffffffffffffffffffffffffff161415610c4c576040517f08c379a00000000000000000000000000000000000000000000000000000000081526004018080602001828103825260278152602001806110686027913960400191505060405180910390fd5b81600080905060008090505b60008084815260200190815260200160002060010180549050811015610d0c576000808481526020019081526020016000206001018181548110610c9857fe5b9060005260206000200160009054906101000a900473ffffffffffffffffffffffffffffffffffffffff1673ffffffffffffffffffffffffffffffffffffffff163373ffffffffffffffffffffffffffffffffffffffff161415610cff5760019150610d0c565b8080600101915050610c58565b5080610d80576040517f08c379a00000000000000000000000000000000000000000000000000000000081526004018080602001828103825260108152602001807f496e76616c696420617070726f7665720000000000000000000000000000000081525060200191505060405180910390fd5b60008085815260200190815260200160002060020160003373ffffffffffffffffffffffffffffffffffffffff1673ffffffffffffffffffffffffffffffffffffffff16815260200190815260200160002060009054906101000a900460ff1615610e53576040517f08c379a000000000000000000000000000000000000000000000000000000000815260040180806020018281038252601e8152602001807f596f7520616c726561647920617070726f7665642074686973206e657773000081525060200191505060405180910390fd5b600160008086815260200190815260200160002060020160003373ffffffffffffffffffffffffffffffffffffffff1673ffffffffffffffffffffffffffffffffffffffff16815260200190815260200160002060006101000a81548160ff02191690831515021790555060008085815260200190815260200160002060030160008154809291906001900391905055506000806000868152602001908152602001600020600301541415610f3057837f6cf336e8ab072b6da9053cff3e43e0f4ee4ab96618f2e9117124acb1ef6e8eda60405160405180910390a25b837f96a2768c0b8c25ecfcb84d1df071dbfc32ff45efc12f634c7942f447ebf541d133604051808273ffffffffffffffffffffffffffffffffffffffff1673ffffffffffffffffffffffffffffffffffffffff16815260200191505060405180910390a250505050565b828054828255906000526020600020908101928215611013579160200282015b828111156110125782518260006101000a81548173ffffffffffffffffffffffffffffffffffffffff021916908373ffffffffffffffffffffffffffffffffffffffff16021790555091602001919060010190610fba565b5b5090506110209190611024565b5090565b61106491905b8082111561106057600081816101000a81549073ffffffffffffffffffffffffffffffffffffffff02191690555060010161102a565b5090565b9056fe4e65777320776974682074686520676976656e206861736820646f6573206e6f74206578697374a265627a7a723058201bfa0cf17b1664da60a0d0b88a2b0dec875b600df7c0a093a0eaa583d614970364736f6c634300050a0032",
  "source": "pragma solidity 0.5.10;\n\n\ncontract TrustedNewsPlatform {\n\n    // Structs\n\n    struct News {\n        address publisher;\n        address[] concerns;\n        mapping(address => bool) approvals;\n        uint remainingApprovals;\n    }\n\n    // Events\n\n    event NewsPublished(\n        address indexed publisher,\n        address[] indexed concerns,\n        bytes32 newsIpfsHash\n    );\n    event NewsApproved(\n        bytes32 indexed newsIpfsHash,\n        address approver\n    );\n    event NewsDisapproved(\n        bytes32 indexed newsIpfsHash,\n        address disapprover,\n        bytes32 explanationIpfsHash\n    );\n\n    event NewsMarkedAsNotFake(\n        bytes32 indexed newsIpfsHash\n    );\n\n    // Properties\n\n    mapping(bytes32 => News) news;\n    mapping(address => bytes32[]) newsConcerning;\n\n    // Modifiers\n\n    modifier hashIsNotTaken(bytes32 _newsIpfsHash) {\n        require(news[_newsIpfsHash].publisher == address(0), \"This news has already been taken\");\n        _;\n    }\n\n    modifier doesNewsExist(bytes32 _ipfsHash) {\n        require(news[_ipfsHash].publisher != address(0), \"News with the given hash does not exist\");\n        _;\n    }\n\n    modifier isApproverValid(bytes32 _newsIpfsHash) {\n        bool isValid = false;\n\n        for(uint i = 0; i < news[_newsIpfsHash].concerns.length; i++) {\n            if(msg.sender == news[_newsIpfsHash].concerns[i]) {\n                isValid = true;\n                break;\n            }\n        }\n        require(isValid, \"Invalid approver\");\n        _;\n    }\n\n    // State changing functions\n\n    function publishNews(bytes32 _newsIpfsHash, address[] memory _requiredApprovals) public\n    hashIsNotTaken(_newsIpfsHash)\n    {\n        news[_newsIpfsHash] = News({\n            publisher: msg.sender,\n            concerns: _requiredApprovals,\n            remainingApprovals: _requiredApprovals.length\n        });\n        for(uint i = 0; i < _requiredApprovals.length; i++) {\n            newsConcerning[_requiredApprovals[i]].push(_newsIpfsHash);\n        }\n        emit NewsPublished(msg.sender, _requiredApprovals, _newsIpfsHash);\n    }\n\n    function approveNews(bytes32 _newsIpfsHash) public\n    doesNewsExist(_newsIpfsHash)\n    isApproverValid(_newsIpfsHash)\n    {\n        require(!news[_newsIpfsHash].approvals[msg.sender], \"You already approved this news\");\n\n        news[_newsIpfsHash].approvals[msg.sender] = true;\n        news[_newsIpfsHash].remainingApprovals--;\n\n        if(news[_newsIpfsHash].remainingApprovals == 0)\n        {\n            emit NewsMarkedAsNotFake(_newsIpfsHash);\n        }\n\n        emit NewsApproved(_newsIpfsHash, msg.sender);\n    }\n\n    function disapproveNews(bytes32 _newsIpfsHash, bytes32 _explanationIpfsHash) public\n    doesNewsExist(_newsIpfsHash)\n    isApproverValid(_newsIpfsHash)\n    {\n        news[_newsIpfsHash].approvals[msg.sender] = false;\n        emit NewsDisapproved(_newsIpfsHash, msg.sender, _explanationIpfsHash);\n    }\n\n    // Getters\n\n    function getNewsPublisher(bytes32 _newsIpfsHash) public view returns(address) {\n        return news[_newsIpfsHash].publisher;\n    }\n\n    function getNewsConcerns(bytes32 _newsIpfsHash) public view returns(address[] memory) {\n        return news[_newsIpfsHash].concerns;\n    }\n\n    function isNewsApprovedBy(bytes32 _newsIpfsHash, address _approver) public view returns(bool) {\n        return news[_newsIpfsHash].approvals[_approver];\n    }\n\n    function getNewsRemainingApprovals(bytes32 _newsIpfsHash) public view returns(uint) {\n        return news[_newsIpfsHash].remainingApprovals;\n    }\n\n    function GetNewsConcerning(address entity) public view returns(bytes32[] memory) {\n        return newsConcerning[entity];\n    }\n}",
  "sourcePath": "/Users/marcellobardus/Projects/Hackathons/HackYeah2019/contracts/TrustedNewsPlatform.sol",
  "compiler": {
    "name": "solc",
    "version": "0.5.10+commit.5a6ea5b1.Linux.g++"
  },
  "schemaVersion": "3.0.10",
  "updatedAt": "2019-09-14T16:23:58.029Z",
  "devdoc": {
    "methods": {}
  },
  "userdoc": {
    "methods": {}
  }
}