{
  "contractName": "TrustedNewsPlatform",
  "abi": [
    {
      "anonymous": false,
      "inputs": [
        {
          "indexed": true,
          "name": "publisher",
          "type": "address"
        },
        {
          "indexed": true,
          "name": "concerns",
          "type": "address[]"
        },
        {
          "indexed": false,
          "name": "newsIpfsHash",
          "type": "bytes32"
        }
      ],
      "name": "NewsPublished",
      "type": "event"
    },
    {
      "anonymous": false,
      "inputs": [
        {
          "indexed": true,
          "name": "newsIpfsHash",
          "type": "bytes32"
        },
        {
          "indexed": false,
          "name": "approver",
          "type": "address"
        }
      ],
      "name": "NewsApproved",
      "type": "event"
    },
    {
      "anonymous": false,
      "inputs": [
        {
          "indexed": true,
          "name": "newsIpfsHash",
          "type": "bytes32"
        },
        {
          "indexed": false,
          "name": "disapprover",
          "type": "address"
        },
        {
          "indexed": false,
          "name": "explanationIpfsHash",
          "type": "bytes32"
        }
      ],
      "name": "NewsDisapproved",
      "type": "event"
    },
    {
      "anonymous": false,
      "inputs": [
        {
          "indexed": true,
          "name": "newsIpfsHash",
          "type": "bytes32"
        }
      ],
      "name": "NewsMarkedAsNotFake",
      "type": "event"
    },
    {
      "constant": false,
      "inputs": [
        {
          "name": "_newsIpfsHash",
          "type": "bytes32"
        },
        {
          "name": "_requiredApprovals",
          "type": "address[]"
        }
      ],
      "name": "publishNews",
      "outputs": [],
      "payable": false,
      "stateMutability": "nonpayable",
      "type": "function"
    },
    {
      "constant": false,
      "inputs": [
        {
          "name": "_newsIpfsHash",
          "type": "bytes32"
        }
      ],
      "name": "approveNews",
      "outputs": [],
      "payable": false,
      "stateMutability": "nonpayable",
      "type": "function"
    },
    {
      "constant": false,
      "inputs": [
        {
          "name": "_newsIpfsHash",
          "type": "bytes32"
        },
        {
          "name": "_explanationIpfsHash",
          "type": "bytes32"
        }
      ],
      "name": "disapproveNews",
      "outputs": [],
      "payable": false,
      "stateMutability": "nonpayable",
      "type": "function"
    },
    {
      "constant": true,
      "inputs": [
        {
          "name": "_newsIpfsHash",
          "type": "bytes32"
        }
      ],
      "name": "getNewsPublisher",
      "outputs": [
        {
          "name": "",
          "type": "address"
        }
      ],
      "payable": false,
      "stateMutability": "view",
      "type": "function"
    },
    {
      "constant": true,
      "inputs": [
        {
          "name": "_newsIpfsHash",
          "type": "bytes32"
        }
      ],
      "name": "getNewsConcerns",
      "outputs": [
        {
          "name": "",
          "type": "address[]"
        }
      ],
      "payable": false,
      "stateMutability": "view",
      "type": "function"
    },
    {
      "constant": true,
      "inputs": [
        {
          "name": "_newsIpfsHash",
          "type": "bytes32"
        },
        {
          "name": "_approver",
          "type": "address"
        }
      ],
      "name": "isNewsApprovedBy",
      "outputs": [
        {
          "name": "",
          "type": "bool"
        }
      ],
      "payable": false,
      "stateMutability": "view",
      "type": "function"
    },
    {
      "constant": true,
      "inputs": [
        {
          "name": "_newsIpfsHash",
          "type": "bytes32"
        }
      ],
      "name": "getNewsRemainingApprovals",
      "outputs": [
        {
          "name": "",
          "type": "uint256"
        }
      ],
      "payable": false,
      "stateMutability": "view",
      "type": "function"
    },
    {
      "constant": true,
      "inputs": [
        {
          "name": "_entity",
          "type": "address"
        }
      ],
      "name": "getNewsConcerning",
      "outputs": [
        {
          "name": "",
          "type": "bytes32[]"
        }
      ],
      "payable": false,
      "stateMutability": "view",
      "type": "function"
    },
    {
      "constant": true,
      "inputs": [
        {
          "name": "_entity",
          "type": "address"
        }
      ],
      "name": "getNewsConceringCount",
      "outputs": [
        {
          "name": "",
          "type": "uint256"
        }
      ],
      "payable": false,
      "stateMutability": "view",
      "type": "function"
    },
    {
      "constant": true,
      "inputs": [
        {
          "name": "entity",
          "type": "address"
        },
        {
          "name": "_id",
          "type": "uint256"
        }
      ],
      "name": "getNewsConceringByID",
      "outputs": [
        {
          "name": "",
          "type": "bytes32"
        }
      ],
      "payable": false,
      "stateMutability": "view",
      "type": "function"
    }
  ],
  "bytecode": "0x608060405234801561001057600080fd5b50611301806100206000396000f3fe608060405234801561001057600080fd5b50600436106100bb576000357c01000000000000000000000000000000000000000000000000000000009004806376095708116100835780637609570814610291578063987287ea146102f3578063ae6c12f4146103b5578063ca59cb4a1461044e578063dc28191e146104a6576100bb565b8063133992c6146100c0578063326495f1146101025780634fc8d520146101855780635b19027f146101f35780635d135f2214610259575b600080fd5b6100ec600480360360208110156100d657600080fd5b81019080803590602001909291905050506104d4565b6040518082815260200191505060405180910390f35b61012e6004803603602081101561011857600080fd5b81019080803590602001909291905050506104f3565b6040518080602001828103825283818151815260200191508051906020019060200280838360005b83811015610171578082015181840152602081019050610156565b505050509050019250505060405180910390f35b6101b16004803603602081101561019b57600080fd5b8101908080359060200190929190505050610596565b604051808273ffffffffffffffffffffffffffffffffffffffff1673ffffffffffffffffffffffffffffffffffffffff16815260200191505060405180910390f35b61023f6004803603604081101561020957600080fd5b8101908080359060200190929190803573ffffffffffffffffffffffffffffffffffffffff1690602001909291905050506105d5565b604051808215151515815260200191505060405180910390f35b61028f6004803603604081101561026f57600080fd5b81019080803590602001909291908035906020019092919050505061063f565b005b6102dd600480360360408110156102a757600080fd5b81019080803573ffffffffffffffffffffffffffffffffffffffff1690602001909291908035906020019092919050505061090d565b6040518082815260200191505060405180910390f35b6103b36004803603604081101561030957600080fd5b81019080803590602001909291908035906020019064010000000081111561033057600080fd5b82018360208201111561034257600080fd5b8035906020019184602083028401116401000000008311171561036457600080fd5b919080806020026020016040519081016040528093929190818152602001838360200280828437600081840152601f19601f820116905080830192505050505050509192919290505050610a06565b005b6103f7600480360360208110156103cb57600080fd5b81019080803573ffffffffffffffffffffffffffffffffffffffff169060200190929190505050610cc2565b6040518080602001828103825283818151815260200191508051906020019060200280838360005b8381101561043a57808201518184015260208101905061041f565b505050509050019250505060405180910390f35b6104906004803603602081101561046457600080fd5b81019080803573ffffffffffffffffffffffffffffffffffffffff169060200190929190505050610d59565b6040518082815260200191505060405180910390f35b6104d2600480360360208110156104bc57600080fd5b8101908080359060200190929190505050610da5565b005b6000806000838152602001908152602001600020600301549050919050565b606060008083815260200190815260200160002060010180548060200260200160405190810160405280929190818152602001828054801561058a57602002820191906000526020600020905b8160009054906101000a900473ffffffffffffffffffffffffffffffffffffffff1673ffffffffffffffffffffffffffffffffffffffff1681526020019060010190808311610540575b50505050509050919050565b600080600083815260200190815260200160002060000160009054906101000a900473ffffffffffffffffffffffffffffffffffffffff169050919050565b600080600084815260200190815260200160002060020160008373ffffffffffffffffffffffffffffffffffffffff1673ffffffffffffffffffffffffffffffffffffffff16815260200190815260200160002060009054906101000a900460ff16905092915050565b81600073ffffffffffffffffffffffffffffffffffffffff1660008083815260200190815260200160002060000160009054906101000a900473ffffffffffffffffffffffffffffffffffffffff1673ffffffffffffffffffffffffffffffffffffffff1614156106fb576040517f08c379a00000000000000000000000000000000000000000000000000000000081526004018080602001828103825260278152602001806112a66027913960400191505060405180910390fd5b82600080905060008090505b600080848152602001908152602001600020600101805490508110156107bb57600080848152602001908152602001600020600101818154811061074757fe5b9060005260206000200160009054906101000a900473ffffffffffffffffffffffffffffffffffffffff1673ffffffffffffffffffffffffffffffffffffffff163373ffffffffffffffffffffffffffffffffffffffff1614156107ae57600191506107bb565b8080600101915050610707565b508061082f576040517f08c379a00000000000000000000000000000000000000000000000000000000081526004018080602001828103825260108152602001807f496e76616c696420617070726f7665720000000000000000000000000000000081525060200191505060405180910390fd5b600080600087815260200190815260200160002060020160003373ffffffffffffffffffffffffffffffffffffffff1673ffffffffffffffffffffffffffffffffffffffff16815260200190815260200160002060006101000a81548160ff021916908315150217905550847fcf59f9d8d074a0cea57ef5c3f5d5e88b9c4642f99e622ff90f9edd8c3aa758bb3386604051808373ffffffffffffffffffffffffffffffffffffffff1673ffffffffffffffffffffffffffffffffffffffff1681526020018281526020019250505060405180910390a25050505050565b6000600160008473ffffffffffffffffffffffffffffffffffffffff1673ffffffffffffffffffffffffffffffffffffffff1681526020019081526020016000208054905082106109a9576040517f08c379a000000000000000000000000000000000000000000000000000000000815260040180806020018281038252602981526020018061127d6029913960400191505060405180910390fd5b600160008473ffffffffffffffffffffffffffffffffffffffff1673ffffffffffffffffffffffffffffffffffffffff16815260200190815260200160002082815481106109f357fe5b9060005260206000200154905092915050565b81600073ffffffffffffffffffffffffffffffffffffffff1660008083815260200190815260200160002060000160009054906101000a900473ffffffffffffffffffffffffffffffffffffffff1673ffffffffffffffffffffffffffffffffffffffff1614610ade576040517f08c379a00000000000000000000000000000000000000000000000000000000081526004018080602001828103825260208152602001807f54686973206e6577732068617320616c7265616479206265656e2074616b656e81525060200191505060405180910390fd5b60405180606001604052803373ffffffffffffffffffffffffffffffffffffffff168152602001838152602001835181525060008085815260200190815260200160002060008201518160000160006101000a81548173ffffffffffffffffffffffffffffffffffffffff021916908373ffffffffffffffffffffffffffffffffffffffff1602179055506020820151816001019080519060200190610b859291906111af565b506040820151816003015590505060008090505b8251811015610c2b5760016000848381518110610bb257fe5b602002602001015173ffffffffffffffffffffffffffffffffffffffff1673ffffffffffffffffffffffffffffffffffffffff1681526020019081526020016000208490806001815401808255809150509060018203906000526020600020016000909192909190915055508080600101915050610b99565b508160405180828051906020019060200280838360005b83811015610c5d578082015181840152602081019050610c42565b5050505090500191505060405180910390203373ffffffffffffffffffffffffffffffffffffffff167fcf2a617fb980e330db4e9d140bec6d45018d5249b0672be54fd1f03df017a408856040518082815260200191505060405180910390a3505050565b6060600160008373ffffffffffffffffffffffffffffffffffffffff1673ffffffffffffffffffffffffffffffffffffffff168152602001908152602001600020805480602002602001604051908101604052809291908181526020018280548015610d4d57602002820191906000526020600020905b815481526020019060010190808311610d39575b50505050509050919050565b6000600160008373ffffffffffffffffffffffffffffffffffffffff1673ffffffffffffffffffffffffffffffffffffffff168152602001908152602001600020805490509050919050565b80600073ffffffffffffffffffffffffffffffffffffffff1660008083815260200190815260200160002060000160009054906101000a900473ffffffffffffffffffffffffffffffffffffffff1673ffffffffffffffffffffffffffffffffffffffff161415610e61576040517f08c379a00000000000000000000000000000000000000000000000000000000081526004018080602001828103825260278152602001806112a66027913960400191505060405180910390fd5b81600080905060008090505b60008084815260200190815260200160002060010180549050811015610f21576000808481526020019081526020016000206001018181548110610ead57fe5b9060005260206000200160009054906101000a900473ffffffffffffffffffffffffffffffffffffffff1673ffffffffffffffffffffffffffffffffffffffff163373ffffffffffffffffffffffffffffffffffffffff161415610f145760019150610f21565b8080600101915050610e6d565b5080610f95576040517f08c379a00000000000000000000000000000000000000000000000000000000081526004018080602001828103825260108152602001807f496e76616c696420617070726f7665720000000000000000000000000000000081525060200191505060405180910390fd5b60008085815260200190815260200160002060020160003373ffffffffffffffffffffffffffffffffffffffff1673ffffffffffffffffffffffffffffffffffffffff16815260200190815260200160002060009054906101000a900460ff1615611068576040517f08c379a000000000000000000000000000000000000000000000000000000000815260040180806020018281038252601e8152602001807f596f7520616c726561647920617070726f7665642074686973206e657773000081525060200191505060405180910390fd5b600160008086815260200190815260200160002060020160003373ffffffffffffffffffffffffffffffffffffffff1673ffffffffffffffffffffffffffffffffffffffff16815260200190815260200160002060006101000a81548160ff0219169083151502179055506000808581526020019081526020016000206003016000815480929190600190039190505550600080600086815260200190815260200160002060030154141561114557837f6cf336e8ab072b6da9053cff3e43e0f4ee4ab96618f2e9117124acb1ef6e8eda60405160405180910390a25b837f96a2768c0b8c25ecfcb84d1df071dbfc32ff45efc12f634c7942f447ebf541d133604051808273ffffffffffffffffffffffffffffffffffffffff1673ffffffffffffffffffffffffffffffffffffffff16815260200191505060405180910390a250505050565b828054828255906000526020600020908101928215611228579160200282015b828111156112275782518260006101000a81548173ffffffffffffffffffffffffffffffffffffffff021916908373ffffffffffffffffffffffffffffffffffffffff160217905550916020019190600101906111cf565b5b5090506112359190611239565b5090565b61127991905b8082111561127557600081816101000a81549073ffffffffffffffffffffffffffffffffffffffff02191690555060010161123f565b5090565b9056fe446f63756d656e7420776974682074686520676976656e20696420646f6573206e6f742065786973744e65777320776974682074686520676976656e206861736820646f6573206e6f74206578697374a265627a7a723058206adf2089db251039cf3c3688b9c3c0cd5b82d1cd07d5f3ad32c6c36cd8568ad864736f6c634300050a0032",
  "source": "pragma solidity 0.5.10;\n\n\ncontract TrustedNewsPlatform {\n\n    // Structs\n\n    struct News {\n        address publisher;\n        address[] concerns;\n        mapping(address => bool) approvals;\n        uint remainingApprovals;\n    }\n\n    // Events\n\n    event NewsPublished(\n        address indexed publisher,\n        address[] indexed concerns,\n        bytes32 newsIpfsHash\n    );\n    event NewsApproved(\n        bytes32 indexed newsIpfsHash,\n        address approver\n    );\n    event NewsDisapproved(\n        bytes32 indexed newsIpfsHash,\n        address disapprover,\n        bytes32 explanationIpfsHash\n    );\n\n    event NewsMarkedAsNotFake(\n        bytes32 indexed newsIpfsHash\n    );\n\n    // Properties\n\n    mapping(bytes32 => News) news;\n    mapping(address => bytes32[]) newsConcerning;\n\n    // Modifiers\n\n    modifier hashIsNotTaken(bytes32 _newsIpfsHash) {\n        require(news[_newsIpfsHash].publisher == address(0), \"This news has already been taken\");\n        _;\n    }\n\n    modifier doesNewsExist(bytes32 _ipfsHash) {\n        require(news[_ipfsHash].publisher != address(0), \"News with the given hash does not exist\");\n        _;\n    }\n\n    modifier isApproverValid(bytes32 _newsIpfsHash) {\n        bool isValid = false;\n\n        for(uint i = 0; i < news[_newsIpfsHash].concerns.length; i++) {\n            if(msg.sender == news[_newsIpfsHash].concerns[i]) {\n                isValid = true;\n                break;\n            }\n        }\n        require(isValid, \"Invalid approver\");\n        _;\n    }\n\n    // State changing functions\n\n    function publishNews(bytes32 _newsIpfsHash, address[] memory _requiredApprovals) public\n    hashIsNotTaken(_newsIpfsHash)\n    {\n        news[_newsIpfsHash] = News({\n            publisher: msg.sender,\n            concerns: _requiredApprovals,\n            remainingApprovals: _requiredApprovals.length\n        });\n        for(uint i = 0; i < _requiredApprovals.length; i++) {\n            newsConcerning[_requiredApprovals[i]].push(_newsIpfsHash);\n        }\n        emit NewsPublished(msg.sender, _requiredApprovals, _newsIpfsHash);\n    }\n\n    function approveNews(bytes32 _newsIpfsHash) public\n    doesNewsExist(_newsIpfsHash)\n    isApproverValid(_newsIpfsHash)\n    {\n        require(!news[_newsIpfsHash].approvals[msg.sender], \"You already approved this news\");\n\n        news[_newsIpfsHash].approvals[msg.sender] = true;\n        news[_newsIpfsHash].remainingApprovals--;\n\n        if(news[_newsIpfsHash].remainingApprovals == 0)\n        {\n            emit NewsMarkedAsNotFake(_newsIpfsHash);\n        }\n\n        emit NewsApproved(_newsIpfsHash, msg.sender);\n    }\n\n    function disapproveNews(bytes32 _newsIpfsHash, bytes32 _explanationIpfsHash) public\n    doesNewsExist(_newsIpfsHash)\n    isApproverValid(_newsIpfsHash)\n    {\n        news[_newsIpfsHash].approvals[msg.sender] = false;\n        emit NewsDisapproved(_newsIpfsHash, msg.sender, _explanationIpfsHash);\n    }\n\n    // Getters\n\n    function getNewsPublisher(bytes32 _newsIpfsHash) public view returns(address) {\n        return news[_newsIpfsHash].publisher;\n    }\n\n    function getNewsConcerns(bytes32 _newsIpfsHash) public view returns(address[] memory) {\n        return news[_newsIpfsHash].concerns;\n    }\n\n    function isNewsApprovedBy(bytes32 _newsIpfsHash, address _approver) public view returns(bool) {\n        return news[_newsIpfsHash].approvals[_approver];\n    }\n\n    function getNewsRemainingApprovals(bytes32 _newsIpfsHash) public view returns(uint) {\n        return news[_newsIpfsHash].remainingApprovals;\n    }\n\n    function getNewsConcerning(address _entity) public view returns(bytes32[] memory) {\n        return newsConcerning[_entity];\n    }\n\n    function getNewsConceringCount(address _entity) public view returns(uint) {\n        return newsConcerning[_entity].length;\n    }\n\n    function getNewsConceringByID(address entity, uint _id) public view returns(bytes32) {\n        require(_id < newsConcerning[entity].length, \"Document with the given id does not exist\");\n        return newsConcerning[entity][_id];\n    }\n}",
  "sourcePath": "/Users/marcellobardus/Projects/Hackathons/HackYeah2019/contracts/TrustedNewsPlatform.sol",
  "compiler": {
    "name": "solc",
    "version": "0.5.10+commit.5a6ea5b1.Linux.g++"
  },
  "schemaVersion": "3.0.10",
  "updatedAt": "2019-09-14T17:32:55.654Z",
  "devdoc": {
    "methods": {}
  },
  "userdoc": {
    "methods": {}
  }
}