{
  "contractName": "TrustedNewsPlatform",
  "abi": [
    {
      "anonymous": false,
      "inputs": [
        {
          "indexed": true,
          "name": "publisher",
          "type": "address"
        },
        {
          "indexed": true,
          "name": "concerns",
          "type": "address[]"
        },
        {
          "indexed": false,
          "name": "newsIpfsHash",
          "type": "bytes32"
        }
      ],
      "name": "NewsPublished",
      "type": "event"
    },
    {
      "anonymous": false,
      "inputs": [
        {
          "indexed": true,
          "name": "newsIpfsHash",
          "type": "bytes32"
        },
        {
          "indexed": false,
          "name": "approver",
          "type": "address"
        }
      ],
      "name": "NewsApproved",
      "type": "event"
    },
    {
      "anonymous": false,
      "inputs": [
        {
          "indexed": true,
          "name": "newsIpfsHash",
          "type": "bytes32"
        },
        {
          "indexed": false,
          "name": "disapprover",
          "type": "address"
        },
        {
          "indexed": false,
          "name": "explanationIpfsHash",
          "type": "bytes32"
        }
      ],
      "name": "NewsDisapproved",
      "type": "event"
    },
    {
      "anonymous": false,
      "inputs": [
        {
          "indexed": true,
          "name": "newsIpfsHash",
          "type": "bytes32"
        }
      ],
      "name": "NewsMarkedAsNotFake",
      "type": "event"
    },
    {
      "constant": false,
      "inputs": [
        {
          "name": "_newsIpfsHash",
          "type": "bytes32"
        },
        {
          "name": "_requiredApprovals",
          "type": "address[]"
        }
      ],
      "name": "publishNews",
      "outputs": [],
      "payable": false,
      "stateMutability": "nonpayable",
      "type": "function"
    },
    {
      "constant": false,
      "inputs": [
        {
          "name": "_newsIpfsHash",
          "type": "bytes32"
        }
      ],
      "name": "approveNews",
      "outputs": [],
      "payable": false,
      "stateMutability": "nonpayable",
      "type": "function"
    },
    {
      "constant": false,
      "inputs": [
        {
          "name": "_newsIpfsHash",
          "type": "bytes32"
        },
        {
          "name": "_explanationIpfsHash",
          "type": "bytes32"
        }
      ],
      "name": "disapproveNews",
      "outputs": [],
      "payable": false,
      "stateMutability": "nonpayable",
      "type": "function"
    },
    {
      "constant": true,
      "inputs": [
        {
          "name": "_newsIpfsHash",
          "type": "bytes32"
        }
      ],
      "name": "isHashValid",
      "outputs": [
        {
          "name": "",
          "type": "bool"
        }
      ],
      "payable": false,
      "stateMutability": "view",
      "type": "function"
    },
    {
      "constant": true,
      "inputs": [
        {
          "name": "_newsIpfsHash",
          "type": "bytes32"
        }
      ],
      "name": "getNewsPublisher",
      "outputs": [
        {
          "name": "",
          "type": "address"
        }
      ],
      "payable": false,
      "stateMutability": "view",
      "type": "function"
    },
    {
      "constant": true,
      "inputs": [
        {
          "name": "_newsIpfsHash",
          "type": "bytes32"
        }
      ],
      "name": "getNewsConcerns",
      "outputs": [
        {
          "name": "",
          "type": "address[]"
        }
      ],
      "payable": false,
      "stateMutability": "view",
      "type": "function"
    },
    {
      "constant": true,
      "inputs": [
        {
          "name": "_newsIpfsHash",
          "type": "bytes32"
        },
        {
          "name": "_approver",
          "type": "address"
        }
      ],
      "name": "isNewsApprovedBy",
      "outputs": [
        {
          "name": "",
          "type": "bool"
        }
      ],
      "payable": false,
      "stateMutability": "view",
      "type": "function"
    },
    {
      "constant": true,
      "inputs": [
        {
          "name": "_newsIpfsHash",
          "type": "bytes32"
        }
      ],
      "name": "getNewsRemainingApprovals",
      "outputs": [
        {
          "name": "",
          "type": "uint256"
        }
      ],
      "payable": false,
      "stateMutability": "view",
      "type": "function"
    },
    {
      "constant": true,
      "inputs": [
        {
          "name": "_entity",
          "type": "address"
        }
      ],
      "name": "getNewsConcerning",
      "outputs": [
        {
          "name": "",
          "type": "bytes32[]"
        }
      ],
      "payable": false,
      "stateMutability": "view",
      "type": "function"
    },
    {
      "constant": true,
      "inputs": [
        {
          "name": "_entity",
          "type": "address"
        }
      ],
      "name": "getNewsConceringCount",
      "outputs": [
        {
          "name": "",
          "type": "uint256"
        }
      ],
      "payable": false,
      "stateMutability": "view",
      "type": "function"
    },
    {
      "constant": true,
      "inputs": [
        {
          "name": "entity",
          "type": "address"
        },
        {
          "name": "_id",
          "type": "uint256"
        }
      ],
      "name": "getNewsConceringByID",
      "outputs": [
        {
          "name": "",
          "type": "bytes32"
        }
      ],
      "payable": false,
      "stateMutability": "view",
      "type": "function"
    }
  ],
  "bytecode": "0x608060405234801561001057600080fd5b506113c0806100206000396000f3fe608060405234801561001057600080fd5b50600436106100c6576000357c010000000000000000000000000000000000000000000000000000000090048063760957081161008e578063760957081461029c578063987287ea146102fe578063ae6c12f4146103c0578063ca59cb4a14610459578063dc28191e146104b1578063ef5d5331146104df576100c6565b8063133992c6146100cb578063326495f11461010d5780634fc8d520146101905780635b19027f146101fe5780635d135f2214610264575b600080fd5b6100f7600480360360208110156100e157600080fd5b8101908080359060200190929190505050610525565b6040518082815260200191505060405180910390f35b6101396004803603602081101561012357600080fd5b8101908080359060200190929190505050610544565b6040518080602001828103825283818151815260200191508051906020019060200280838360005b8381101561017c578082015181840152602081019050610161565b505050509050019250505060405180910390f35b6101bc600480360360208110156101a657600080fd5b81019080803590602001909291905050506105e7565b604051808273ffffffffffffffffffffffffffffffffffffffff1673ffffffffffffffffffffffffffffffffffffffff16815260200191505060405180910390f35b61024a6004803603604081101561021457600080fd5b8101908080359060200190929190803573ffffffffffffffffffffffffffffffffffffffff169060200190929190505050610626565b604051808215151515815260200191505060405180910390f35b61029a6004803603604081101561027a57600080fd5b810190808035906020019092919080359060200190929190505050610690565b005b6102e8600480360360408110156102b257600080fd5b81019080803573ffffffffffffffffffffffffffffffffffffffff1690602001909291908035906020019092919050505061095e565b6040518082815260200191505060405180910390f35b6103be6004803603604081101561031457600080fd5b81019080803590602001909291908035906020019064010000000081111561033b57600080fd5b82018360208201111561034d57600080fd5b8035906020019184602083028401116401000000008311171561036f57600080fd5b919080806020026020016040519081016040528093929190818152602001838360200280828437600081840152601f19601f820116905080830192505050505050509192919290505050610a57565b005b610402600480360360208110156103d657600080fd5b81019080803573ffffffffffffffffffffffffffffffffffffffff169060200190929190505050610d13565b6040518080602001828103825283818151815260200191508051906020019060200280838360005b8381101561044557808201518184015260208101905061042a565b505050509050019250505060405180910390f35b61049b6004803603602081101561046f57600080fd5b81019080803573ffffffffffffffffffffffffffffffffffffffff169060200190929190505050610daa565b6040518082815260200191505060405180910390f35b6104dd600480360360208110156104c757600080fd5b8101908080359060200190929190505050610df6565b005b61050b600480360360208110156104f557600080fd5b8101908080359060200190929190505050611200565b604051808215151515815260200191505060405180910390f35b6000806000838152602001908152602001600020600301549050919050565b60606000808381526020019081526020016000206001018054806020026020016040519081016040528092919081815260200182805480156105db57602002820191906000526020600020905b8160009054906101000a900473ffffffffffffffffffffffffffffffffffffffff1673ffffffffffffffffffffffffffffffffffffffff1681526020019060010190808311610591575b50505050509050919050565b600080600083815260200190815260200160002060000160009054906101000a900473ffffffffffffffffffffffffffffffffffffffff169050919050565b600080600084815260200190815260200160002060020160008373ffffffffffffffffffffffffffffffffffffffff1673ffffffffffffffffffffffffffffffffffffffff16815260200190815260200160002060009054906101000a900460ff16905092915050565b81600073ffffffffffffffffffffffffffffffffffffffff1660008083815260200190815260200160002060000160009054906101000a900473ffffffffffffffffffffffffffffffffffffffff1673ffffffffffffffffffffffffffffffffffffffff16141561074c576040517f08c379a00000000000000000000000000000000000000000000000000000000081526004018080602001828103825260278152602001806113656027913960400191505060405180910390fd5b82600080905060008090505b6000808481526020019081526020016000206001018054905081101561080c57600080848152602001908152602001600020600101818154811061079857fe5b9060005260206000200160009054906101000a900473ffffffffffffffffffffffffffffffffffffffff1673ffffffffffffffffffffffffffffffffffffffff163373ffffffffffffffffffffffffffffffffffffffff1614156107ff576001915061080c565b8080600101915050610758565b5080610880576040517f08c379a00000000000000000000000000000000000000000000000000000000081526004018080602001828103825260108152602001807f496e76616c696420617070726f7665720000000000000000000000000000000081525060200191505060405180910390fd5b600080600087815260200190815260200160002060020160003373ffffffffffffffffffffffffffffffffffffffff1673ffffffffffffffffffffffffffffffffffffffff16815260200190815260200160002060006101000a81548160ff021916908315150217905550847fcf59f9d8d074a0cea57ef5c3f5d5e88b9c4642f99e622ff90f9edd8c3aa758bb3386604051808373ffffffffffffffffffffffffffffffffffffffff1673ffffffffffffffffffffffffffffffffffffffff1681526020018281526020019250505060405180910390a25050505050565b6000600160008473ffffffffffffffffffffffffffffffffffffffff1673ffffffffffffffffffffffffffffffffffffffff1681526020019081526020016000208054905082106109fa576040517f08c379a000000000000000000000000000000000000000000000000000000000815260040180806020018281038252602981526020018061133c6029913960400191505060405180910390fd5b600160008473ffffffffffffffffffffffffffffffffffffffff1673ffffffffffffffffffffffffffffffffffffffff1681526020019081526020016000208281548110610a4457fe5b9060005260206000200154905092915050565b81600073ffffffffffffffffffffffffffffffffffffffff1660008083815260200190815260200160002060000160009054906101000a900473ffffffffffffffffffffffffffffffffffffffff1673ffffffffffffffffffffffffffffffffffffffff1614610b2f576040517f08c379a00000000000000000000000000000000000000000000000000000000081526004018080602001828103825260208152602001807f54686973206e6577732068617320616c7265616479206265656e2074616b656e81525060200191505060405180910390fd5b60405180606001604052803373ffffffffffffffffffffffffffffffffffffffff168152602001838152602001835181525060008085815260200190815260200160002060008201518160000160006101000a81548173ffffffffffffffffffffffffffffffffffffffff021916908373ffffffffffffffffffffffffffffffffffffffff1602179055506020820151816001019080519060200190610bd692919061126e565b506040820151816003015590505060008090505b8251811015610c7c5760016000848381518110610c0357fe5b602002602001015173ffffffffffffffffffffffffffffffffffffffff1673ffffffffffffffffffffffffffffffffffffffff1681526020019081526020016000208490806001815401808255809150509060018203906000526020600020016000909192909190915055508080600101915050610bea565b508160405180828051906020019060200280838360005b83811015610cae578082015181840152602081019050610c93565b5050505090500191505060405180910390203373ffffffffffffffffffffffffffffffffffffffff167fcf2a617fb980e330db4e9d140bec6d45018d5249b0672be54fd1f03df017a408856040518082815260200191505060405180910390a3505050565b6060600160008373ffffffffffffffffffffffffffffffffffffffff1673ffffffffffffffffffffffffffffffffffffffff168152602001908152602001600020805480602002602001604051908101604052809291908181526020018280548015610d9e57602002820191906000526020600020905b815481526020019060010190808311610d8a575b50505050509050919050565b6000600160008373ffffffffffffffffffffffffffffffffffffffff1673ffffffffffffffffffffffffffffffffffffffff168152602001908152602001600020805490509050919050565b80600073ffffffffffffffffffffffffffffffffffffffff1660008083815260200190815260200160002060000160009054906101000a900473ffffffffffffffffffffffffffffffffffffffff1673ffffffffffffffffffffffffffffffffffffffff161415610eb2576040517f08c379a00000000000000000000000000000000000000000000000000000000081526004018080602001828103825260278152602001806113656027913960400191505060405180910390fd5b81600080905060008090505b60008084815260200190815260200160002060010180549050811015610f72576000808481526020019081526020016000206001018181548110610efe57fe5b9060005260206000200160009054906101000a900473ffffffffffffffffffffffffffffffffffffffff1673ffffffffffffffffffffffffffffffffffffffff163373ffffffffffffffffffffffffffffffffffffffff161415610f655760019150610f72565b8080600101915050610ebe565b5080610fe6576040517f08c379a00000000000000000000000000000000000000000000000000000000081526004018080602001828103825260108152602001807f496e76616c696420617070726f7665720000000000000000000000000000000081525060200191505060405180910390fd5b60008085815260200190815260200160002060020160003373ffffffffffffffffffffffffffffffffffffffff1673ffffffffffffffffffffffffffffffffffffffff16815260200190815260200160002060009054906101000a900460ff16156110b9576040517f08c379a000000000000000000000000000000000000000000000000000000000815260040180806020018281038252601e8152602001807f596f7520616c726561647920617070726f7665642074686973206e657773000081525060200191505060405180910390fd5b600160008086815260200190815260200160002060020160003373ffffffffffffffffffffffffffffffffffffffff1673ffffffffffffffffffffffffffffffffffffffff16815260200190815260200160002060006101000a81548160ff0219169083151502179055506000808581526020019081526020016000206003016000815480929190600190039190505550600080600086815260200190815260200160002060030154141561119657837f6cf336e8ab072b6da9053cff3e43e0f4ee4ab96618f2e9117124acb1ef6e8eda60405160405180910390a25b837f96a2768c0b8c25ecfcb84d1df071dbfc32ff45efc12f634c7942f447ebf541d133604051808273ffffffffffffffffffffffffffffffffffffffff1673ffffffffffffffffffffffffffffffffffffffff16815260200191505060405180910390a250505050565b60008073ffffffffffffffffffffffffffffffffffffffff1660008084815260200190815260200160002060000160009054906101000a900473ffffffffffffffffffffffffffffffffffffffff1673ffffffffffffffffffffffffffffffffffffffff1614159050919050565b8280548282559060005260206000209081019282156112e7579160200282015b828111156112e65782518260006101000a81548173ffffffffffffffffffffffffffffffffffffffff021916908373ffffffffffffffffffffffffffffffffffffffff1602179055509160200191906001019061128e565b5b5090506112f491906112f8565b5090565b61133891905b8082111561133457600081816101000a81549073ffffffffffffffffffffffffffffffffffffffff0219169055506001016112fe565b5090565b9056fe446f63756d656e7420776974682074686520676976656e20696420646f6573206e6f742065786973744e65777320776974682074686520676976656e206861736820646f6573206e6f74206578697374a265627a7a723058207ee9945b8474d45bfce918ef3429d8d0172339463d4253b8bd5212d7812658c964736f6c634300050a0032",
  "source": "pragma solidity 0.5.10;\n\n\ncontract TrustedNewsPlatform {\n\n    // Structs\n\n    struct News {\n        address publisher;\n        address[] concerns;\n        mapping(address => bool) approvals;\n        uint remainingApprovals;\n    }\n\n    // Events\n\n    event NewsPublished(\n        address indexed publisher,\n        address[] indexed concerns,\n        bytes32 newsIpfsHash\n    );\n    event NewsApproved(\n        bytes32 indexed newsIpfsHash,\n        address approver\n    );\n    event NewsDisapproved(\n        bytes32 indexed newsIpfsHash,\n        address disapprover,\n        bytes32 explanationIpfsHash\n    );\n\n    event NewsMarkedAsNotFake(\n        bytes32 indexed newsIpfsHash\n    );\n\n    // Properties\n\n    mapping(bytes32 => News) news;\n    mapping(address => bytes32[]) newsConcerning;\n\n    // Modifiers\n\n    modifier hashIsNotTaken(bytes32 _newsIpfsHash) {\n        require(news[_newsIpfsHash].publisher == address(0), \"This news has already been taken\");\n        _;\n    }\n\n    modifier doesNewsExist(bytes32 _ipfsHash) {\n        require(news[_ipfsHash].publisher != address(0), \"News with the given hash does not exist\");\n        _;\n    }\n\n    modifier isApproverValid(bytes32 _newsIpfsHash) {\n        bool isValid = false;\n\n        for(uint i = 0; i < news[_newsIpfsHash].concerns.length; i++) {\n            if(msg.sender == news[_newsIpfsHash].concerns[i]) {\n                isValid = true;\n                break;\n            }\n        }\n        require(isValid, \"Invalid approver\");\n        _;\n    }\n\n    // State changing functions\n\n    function publishNews(bytes32 _newsIpfsHash, address[] memory _requiredApprovals) public\n    hashIsNotTaken(_newsIpfsHash)\n    {\n        news[_newsIpfsHash] = News({\n            publisher: msg.sender,\n            concerns: _requiredApprovals,\n            remainingApprovals: _requiredApprovals.length\n        });\n        for(uint i = 0; i < _requiredApprovals.length; i++) {\n            newsConcerning[_requiredApprovals[i]].push(_newsIpfsHash);\n        }\n        emit NewsPublished(msg.sender, _requiredApprovals, _newsIpfsHash);\n    }\n\n    function approveNews(bytes32 _newsIpfsHash) public\n    doesNewsExist(_newsIpfsHash)\n    isApproverValid(_newsIpfsHash)\n    {\n        require(!news[_newsIpfsHash].approvals[msg.sender], \"You already approved this news\");\n\n        news[_newsIpfsHash].approvals[msg.sender] = true;\n        news[_newsIpfsHash].remainingApprovals--;\n\n        if(news[_newsIpfsHash].remainingApprovals == 0)\n        {\n            emit NewsMarkedAsNotFake(_newsIpfsHash);\n        }\n\n        emit NewsApproved(_newsIpfsHash, msg.sender);\n    }\n\n    function disapproveNews(bytes32 _newsIpfsHash, bytes32 _explanationIpfsHash) public\n    doesNewsExist(_newsIpfsHash)\n    isApproverValid(_newsIpfsHash)\n    {\n        news[_newsIpfsHash].approvals[msg.sender] = false;\n        emit NewsDisapproved(_newsIpfsHash, msg.sender, _explanationIpfsHash);\n    }\n\n    // Getters\n\n    function isHashValid(bytes32 _newsIpfsHash) public view returns(bool) {\n        return news[_newsIpfsHash].publisher != address(0);\n    }\n\n    function getNewsPublisher(bytes32 _newsIpfsHash) public view returns(address) {\n        return news[_newsIpfsHash].publisher;\n    }\n\n    function getNewsConcerns(bytes32 _newsIpfsHash) public view returns(address[] memory) {\n        return news[_newsIpfsHash].concerns;\n    }\n\n    function isNewsApprovedBy(bytes32 _newsIpfsHash, address _approver) public view returns(bool) {\n        return news[_newsIpfsHash].approvals[_approver];\n    }\n\n    function getNewsRemainingApprovals(bytes32 _newsIpfsHash) public view returns(uint) {\n        return news[_newsIpfsHash].remainingApprovals;\n    }\n\n    function getNewsConcerning(address _entity) public view returns(bytes32[] memory) {\n        return newsConcerning[_entity];\n    }\n\n    function getNewsConceringCount(address _entity) public view returns(uint) {\n        return newsConcerning[_entity].length;\n    }\n\n    function getNewsConceringByID(address entity, uint _id) public view returns(bytes32) {\n        require(_id < newsConcerning[entity].length, \"Document with the given id does not exist\");\n        return newsConcerning[entity][_id];\n    }\n}",
  "sourcePath": "/Users/marcellobardus/Projects/Hackathons/HackYeah2019/contracts/TrustedNewsPlatform.sol",
  "compiler": {
    "name": "solc",
    "version": "0.5.10+commit.5a6ea5b1.Linux.g++"
  },
  "schemaVersion": "3.0.10",
  "updatedAt": "2019-09-14T17:48:01.972Z",
  "devdoc": {
    "methods": {}
  },
  "userdoc": {
    "methods": {}
  }
}